:020000040800F2
:1000000000070020F10200086131000819310008E2
:10001000413100081931000839310008F3020008A5
:10002000F3020008F3020008F3020008114200087E
:10003000F3020008F3020008F3020008F3020008CC
:10004000F3020008F3020008F3020008F3020008BC
:10005000F3020008F3020008F3020008F3020008AC
:10006000F3020008F3020008F3020008D54200087A
:10007000FD42000829430008554300088143000859
:10008000A9430008D5430008F3020008F93000082E
:10009000F302000809310008F3020008F302000827
:1000A000F3020008F3020008F3020008F30200085C
:1000B000F3020008F3020008F3020008F30200084C
:1000C000F3020008F3020008F3020008F30200083C
:1000D000F3020008F3020008F3020008F30200082C
:1000E000F3020008F3020008F3020008F30200081C
:1000F000F3020008F3020008F302000801440008BC
:10010000F3020008F30200083D760008F30200083D
:10011000F3020008F3020008F3020008F3020008EB
:100120002D4400085544000881440008AD440008EF
:10013000D9440008F3020008F3020008F3020008A3
:10014000F3020008F3020008F3020008F3020008BB
:10015000014500082D45000859450008F302000834
:10016000F3020008F3020008F3020008F30200089B
:10017000F30200084D6A0008F3020008F3020008C9
:10018000F3020008F3020008F3020008F30200087B
:10019000F3020008F3020008F3020008F30200086B
:1001A000F3020008F3020008F3020008F30200085B
:1001B000F3020008F3020008F3020008F30200084B
:1001C000F3020008F3020008F3020008F30200083B
:1001D000F3020008396A0008F3020008F30200087D
:1001E000F3020008F3020008F3020008F30200081B
:1001F000F3020008F3020008F3020008F30200080B
:10020000F3020008F3020008F3020008F3020008FA
:10021000F3020008F3020008F3020008F3020008EA
:10022000F3020008F3020008F3020008F3020008DA
:10023000F3020008F3020008F3020008F3020008CA
:10024000F3020008F3020008F3020008F3020008BA
:10025000F3020008F3020008F3020008F3020008AA
:10026000F3020008F3020008F3020008F30200089A
:10027000F3020008F3020008F3020008F30200088A
:10028000F3020008F3020008F3020008F30200087A
:10029000F3020008F3020008F3020008F30200086A
:1002A000F3020008F3020008F3020008F30200085A
:1002B000F3020008F3020008F3020008F30200084A
:1002C000F3020008F3020008F3020008F30200083A
:1002D000F3020008F3020008F3020008F30200082A
:1002E000D9160008FFFFFFFFFFFFFFFFFFFFFFFF23
:1002F00002E000F000F8FEE772B6374880F30888A5
:10030000364880F3098836483649086040F20000D4
:10031000CCF200004EF63471CEF200010860BFF35B
:100320004F8FBFF36F8F40F20000C0F2F0004EF627
:100330008851CEF200010860BFF34F8FBFF36F8F7B
:100340004FF00000E1EE100A4EF63C71CEF20001D3
:100350000860022080F31488BFF36F8F05F096FDCC
:1003600006F036FF4FF055301F491B4A91423CBF03
:1003700041F8040BFAE71D49184A91423CBF41F885
:10038000040BFAE71A491B4A1B4B9A423EBF51F82D
:10039000040B42F8040BF8E700201849184A914270
:1003A0003CBF41F8040BFAE705F0AEFD06F096FFFE
:1003B000144C154DAC4203DA54F8041B8847F9E796
:1003C00000F042F8114C124DAC4203DA54F8041B11
:1003D0008847F9E705F096BD0007002000230020BC
:1003E0000000000808ED00E00001002000070020E8
:1003F000607C000800230020642300206823002084
:10040000706F0020E0020008E4020008E402000827
:10041000E40200082DE9F04F2DED108AC1F80CD050
:10042000D0F80CD0BDEC108ABDE8F08F002383F328
:1004300011882846A047002004F014FFFEE704F0CE
:1004400089FE00DFFEE70000F8B501F039FA01F09F
:10045000A5FB05F073FC074605F00AFD0546A8BBA1
:100460001F4B9F4232D001339F4232D027F0FF0210
:100470001C4B9A4230D12E4642F21074F8B200F072
:100480007BFF00F07FFF08B10024264601F0C8FD85
:1004900020B10024032000F077F8264635B1124B36
:1004A0009F4203D0002405F0DBFC2646002005F027
:1004B0004FFC0EB100F07EF801F044FB00F096FF17
:1004C000204600F029F900F075F8F9E72E460024DF
:1004D000D7E704460126D4E7064641F28834D0E740
:1004E000010007B0000008B0263A09B008B501F0D5
:1004F000B9F9A0F120035842584108BD07B50421BD
:1005000001900DEB010001F0CBF903B05DF804FBA5
:1005100038B5302383F31188174803680BB104F012
:100520006DFF0023154A4FF47A71134804F05CFF05
:10053000002383F31188124C236813B12368013B15
:100540002360636813B16368013B63600D4D2B78D2
:1005500033B963687BB9022001F066FA3223636025
:100560002B78032B07D163682BB9022001F05CFACA
:100570004FF47A73636038BD6823002011050008CA
:100580008824002080230020084B187003280CD8F2
:10059000DFE800F008050208022001F043BA02205B
:1005A00001F03EBA024B00225A60704780230020BF
:1005B00088240020F8B501F033FD30B14D4B032203
:1005C0001A7000224C4B5A60F8BD4C4B4C4A1C46EA
:1005D00019680131F8D004339342F9D16268494B6C
:1005E0009A42F1D9484B9B6803F1006303F58023DD
:1005F0009A42E9D205F008FC05F01AFC002001F04F
:1006000085F90220FFF7C0FF404B00219A6C9964E6
:100610001A6F19671A6FDA6CD9645A6F59675A6F73
:100620001A6D19659A6F99679B6F394BD3F88020C3
:1006300042F00062C3F88020D3F8802022F00062EC
:10064000C3F88020D3F88020D3F8802042F00072D5
:10065000C3F88020D3F8802022F00072C3F88020F5
:10066000D3F8803072B64FF0E023C3F8084DD4E9D8
:100670000004BFF34F8FBFF36F8F264AC2F8841078
:10068000BFF34F8F536923F480335361BFF34F8F10
:10069000D2F8803043F6E076C3F3C905C3F34E3396
:1006A0005B0103EA060C29464CEA81770139C2F85E
:1006B0007472F9D2203B13F1200FF2D1BFF34F8FA8
:1006C000BFF36F8FBFF34F8FBFF36F8F536923F467
:1006D000003353610023C2F85032BFF34F8FBFF392
:1006E0006F8F302383F31188854680F30888204775
:1006F0006AE700BF8023002088240020000004084F
:1007000020000408FFFF03080023002000450258D2
:100710000044025800ED00E02DE9F04F95B0DFF8FD
:1007200000932022FF21029004A8D9F8085001F07C
:10073000B3F9B24A1378A3B90121B148117003602B
:10074000302383F3118803680BB104F057FE0023B4
:10075000AC4A4FF47A71AA4804F046FE002383F3B2
:100760001188029B13B1A84B029A1A60A74A13780A
:10077000032B03D000231370A34A53604FF0000BE8
:10078000029C5E46DA46CDF804B0012001F04AF939
:1007900024B19D4B1B68002B00F0E281002001F08A
:1007A00061F8B0F1000880F2118200F067FEEFE717
:1007B0000220FFF79BFE002840F0FF81029B0221F0
:1007C0009348BBF1000F08BF1C4640E04FF47A701D
:1007D00001F048F8071EF1DB0220FFF787FE002832
:1007E000ECD0013F052F00F2EA81DFE807F00307B4
:1007F0000A0D10330520FFF781FE14E0D9F8000040
:10080000F9E7D9F80400F6E7D9F80800F3E74FF064
:100810001C08404608F1040801F07AF8FFF76EFE64
:10082000B8F12C0FF5D10120019B4FF0000A00FA1E
:1008300007F71F43FBB2019301F07AF92EB1019B38
:1008400003F00B030B2B08BF00240221714801F0B9
:1008500027F89AE7D9F80C00CDE7002EAED0019B1F
:1008600003F00B030B2BA9D10220FFF73FFE074635
:100870000028A3D00120002601F048F80220FFF74D
:1008800083FE1FFA86FB584601F050F8044688B1F3
:10089000A8F14002584601365142514101F05EF83C
:1008A0000028EED1BB46044602215B483E4600F0DC
:1008B000F7FF6AE725460120FFF766FED9F8083002
:1008C000AB4207D9284601F023F8013040F07A8185
:1008D0000435F3E700254D4BBB463E461D704A4BA1
:1008E0005D60A9E7002E3FF469AF019B03F00B03A5
:1008F0000B2B7FF463AF0220FFF746FE322000F09F
:10090000B1FFB0F10008FFF659AF18F003077FF40C
:1009100055AF08EB0503D9F8082093423FF64EAFD8
:10092000B8F5807F3FF74AAF3C4BB84503930BDDEA
:100930004FF47A7000F096FF0028FFF63FAF039B5C
:10094000013703F8010BF0E7C820FFF7CFFD07469A
:1009500000283FF433AF1F2D11D8C5F1200204AB9E
:1009600025F003002D494245184428BF4246039212
:1009700001F06CF8039AFF21284801F08DF84FEA46
:10098000A803C8F3870225492846039301F08CF891
:100990000646002888D0039B05EB83054CE7022020
:1009A000FFF7A4FD00283FF409AF00F0E9FF00289D
:1009B0003FF404AF0027B846D9F80830BB4218D935
:1009C0001F2F11D8049B01330ED027F0030314AA64
:1009D000134453F8403C0C93404604220CA90437BE
:1009E00001F008FB8046E7E7384600F091FF0C90E5
:1009F000F2E74046FFF782FD1EE700BF8424002097
:100A0000682300201105000888240020802300208E
:100A100040770008387700083C77000884230020DE
:100A200000230020002364210CA80C9300F02EFF6B
:100A300000287FF4C3AE0220FFF758FD00283FF4E2
:100A4000BDAE0C9800F092FFD4E7002364210CA8FF
:100A50000C9300F01BFF00287FF4B0AE0220FFF7DC
:100A600045FD00283FF4AAAE0C9800F081FFC1E7D5
:100A70000220FFF73BFD00283FF4A0AE00F090FFFE
:100A8000B8E70220FFF732FD00283FF497AE0CA92B
:100A9000142000F08BFF0390FFF730FD03990CA8A2
:100AA00000F0FEFEC8E60220FFF720FD00283FF41C
:100AB00085AE6C4B0CAF03F1100C1868083353F87B
:100AC000041C3A46634503C21746F6D11020FFF7CF
:100AD00015FD1021E3E7322000F0C4FE071EFFF6EB
:100AE0006DAEBB077FF46AAE07EB0A03D9F80820A6
:100AF00093423FF663AE0220FFF7F8FC00283FF474
:100B00005DAE27F003075744BA453FF495AE504613
:100B10000AF1040A00F0FCFEFFF7F0FCF4E74FF4E2
:100B20007A70FFF7E3FC00283FF448AE00F028FF9E
:100B3000002849D0049B01330BD0082204A90020CF
:100B400000F0B2FF00283FD02022FF2104A800F0CF
:100B5000A3FF4548022100F0A3FE444804F088FBAF
:100B600015B0BDE8F08F002E3FF428AE019B03F0D6
:100B70000B030B2B7FF422AE002364210CA80C93F3
:100B800000F084FE074600287FF418AE0220FFF72D
:100B9000ADFC804600283FF411AE0221324800F03F
:100BA0007FFE41F2883004F063FB0C9800F0F4FF04
:100BB00046463C4600F0BCFFE7E506463CE64FF003
:100BC000000AFBE5BB466FE637466DE6012000F004
:100BD00027FFA8F121031F2B3FF6D7AD01A252F842
:100BE00023F000BFB1070008CD0700085B0800082C
:100BF0008B0700088B0700088B070008E508000832
:100C0000D70A00089F090008250A00084B0A0008B7
:100C1000710A00088B070008830A0008A70A000869
:100C20001F0B0008390800088B070008670B000835
:100C3000BD070008390800088B070008250A0008CE
:100C40008B0700088B0700088B0700088B0700083C
:100C50008B0700088B0700088B0700088B0700082C
:100C60005B0800082477000838770008A086010098
:100C7000094A49F26900136899B21B0C00FB013361
:100C800044F250611360054B186882B2000C01FBFE
:100C90000200186080B27047142300201023002047
:100CA0000021102210B5044600F0F6FE034B03CBE2
:100CB000206061601868A06010BD00BF00E8F11FEF
:100CC000F0B5ADF54F7D4FF4C47207460D466CACE0
:100CD0000021204600F0E0FE02F04AFA4FF47A725A
:100CE000254BB0FBF2F0186093E80700022384E87C
:100CF00007000DF5E9702382FFF7D2FF43F63013AA
:100D00001E4906A8238406F005FD1B230DF2E322ED
:100D10000DF1300C84F8323106AB1E46083203CE9A
:100D2000664542F8080C42F8041C3346F5D1318878
:100D30002046B3780DAE118093703146012200F049
:100D40003FFF002380B2E97E0393AB7E029305F15F
:100D5000190301930123009305A3D3E90023CDE9EF
:100D60000460384602F01CFE0DF54F7DF0BD00BF5B
:100D70009E6AC421818A46EE9024002044770008B0
:100D80002DE9F0412C4CDAB080460D46237A5BBB4E
:100D900027A9284601F038F80746002842D19DF8D7
:100DA0009D60C82E3ED801464FF4A662204600F052
:100DB00073FE4FF4807332460DF19E01C4F8F83192
:100DC0004FF4007304F109002644C4F80C334FF4C7
:100DD0004073C4F8203400F039FE9DF89C307772DF
:100DE00023720BB9EB7E237206AC8122002127A867
:100DF00000F052FE0122214627A801F04BF8002303
:100E000080B2E97E0393AB7E029305F1190301934F
:100E10002823CDE904400093404605A3D3E90023ED
:100E200002F0BEFD5AB0BDE8F08100BFAFF3008014
:100E300026417272DF25D7B7D8340020F0B5254E91
:100E40004FF48A75F1B0002405FB006596F8D830A0
:100E5000D822214685F8DC303AA885F8E84006AF6C
:100E600000F01AFE06F1090000F00EFED5F8E4309D
:100E7000C2B206F109018DF8F0000DF1F100CDE9E3
:100E80003A3400F0E3FD394601223AA801F038F87F
:100E9000082380B2317ACDE9047001270E48CDE9EC
:100EA000023706F1D80301933023009307A3D3E957
:100EB000002302F075FDA04206DD02F059F9C5F8E5
:100EC000E000384671B0F0BD2046FBE778F6339F6E
:100ED00093CACD8DD8340020A83400202DE9F041EC
:100EE0001D4D86B01D4E1E4F284602F085FD03465F
:100EF00058B30024DFF86C80ADF814400294CDE9BB
:100F00000344027B8DF8142003AA9968406803C249
:100F10001B6843F00043029302F02CF982190094FD
:100F2000384641F1000302A901F070FAA04205DD44
:100F3000284602F065FD88F80040D5E798F80030B3
:100F4000072B05D8013388F8003006B0BDE8F081E2
:100F5000014802F055FDF8E7A834002040420F0098
:100F6000103A00200D3A002070B50D4614461E467A
:100F700002F072FC50B9022E10D1012C0ED112A336
:100F8000D3E900230120C5E9002307E0282C10D075
:100F900005D8012C09D0052C0FD0002070BD302CB5
:100FA000FBD10BA3D3E90023ECE70BA3D3E9002388
:100FB000E8E70BA3D3E90023E4E70BA3D3E900237D
:100FC000E0E700BFAFF30080401DA12026812A0B7F
:100FD00078F6339F93CACD8D9E6AC421818A46EEEE
:100FE00026417272DF25D7B7F017304A39059E5671
:100FF00038B505460E4C0021013500F0AFFCA4F8D1
:101000002C55B4F82C0500F091FC78B1B4F82C05FF
:1010100000F09CFC014648B9B4F82C0500F09EFC99
:10102000B4F82C350133A4F82C35EAE738BD00BFFD
:10103000D83400200A4B0B4A10B51A6003F58053D0
:1010400093F858203AB95C6D2CB1204601F066F84F
:10105000204601F09FF90448BDE8104001F05EB859
:10106000103A0020F0770008504A00202DE9F04F98
:101070008FB005460C4600AF02F0EEFB00284BD1C6
:10108000237E022B1BD1E38A012B18D102F070F8CA
:101090000646FFF7EDFD03464FF4C87006F51676D9
:1010A000DFF8D082B3FBF0F202FB103316FA83F3C1
:1010B000C8F80030E37E33B9A74B00221A703C37E2
:1010C000BD46BDE8F08F07F12401204600F050FE38
:1010D0000028F4D107F11400FFF7E2FD97F826404D
:1010E00007F1140107F12700224606F0E1FA002873
:1010F000E2D10F2C08D8984B1C70D8F80030A3F51B
:101100001673C8F80030DAE797F824100029D6D013
:10111000284602F099FBD2E7E38A282B33D010D877
:10112000012B2BD0052BCAD1BFF34F8F8B498C4B92
:10113000CA6802F4E0621343CB60BFF34F8F00BF75
:10114000FDE7302BBBD1874EE17E327A9142B6D19A
:10115000607E3146002291F8DC50854200F0AD807F
:10116000013201F58A71042AF5D1326840F6B831AE
:10117000FA328A4294BF32603160A0E721462846A5
:10118000FFF79EFD9BE721462846FFF7F9FD96E70E
:10119000B2F8EC507B6005F103094FEA99094FEA78
:1011A0008902D11DC908A8EBC10300219D46EB4669
:1011B000584600F071FC04F1EE012A4658463144CD
:1011C00000F044FC7B6813B9012000F09FFB96F807
:1011D000D20000F0ABFB044630B9307200F0D0FB17
:1011E000204600F093FBB0E0D6F8D4203AB996F848
:1011F000D200B6F82C25824201D8FFF7F9FED6F8C6
:10120000D4202A44944208D296F8D200B6F82C256D
:101210000130824201D8FFF7EBFE5FFA89F25946AE
:10122000706800F041FC08B9C54679E0726896F82C
:10123000D2002A447260D6F8D42005EB0209C6F821
:10124000D49000F073FB814509D396F8D220D6F8EC
:10125000D4000132001B86F8D220C6F8D400FF2D3E
:101260000FD80024347200F08BFB204600F04EFBB8
:1012700000F0D6FE3C4B188108B9FFF79BF9C54634
:101280001DE7BB6896F8D9000AFB0362FB68D2F839
:10129000E41082F8E83001F58061C2F8E030C2F86D
:1012A000E410FFF7CBFDFFF719FE96F8D9200132C5
:1012B00002F0030286F8D920B6E74FF48A7A204676
:1012C0000AFB02F505F1EA01314400F04DFEF86039
:1012D00000287FF4F4AE0122354485F8E82001F0BF
:1012E00047FFD5F8E020D6ED007A801A40F6B832F4
:1012F000B8EE677ADFED1D6A192838BF19209042D1
:1013000028BF104607EE900AF8EEE77A67EEA67A55
:10131000DFED176AE7EE267AFCEEE77AC6ED007A93
:1013200096F8D93071680AFB03F4BB60321992F861
:10133000E8505DB1D2F8E430E8468B423FF428AF84
:10134000002182F8E810C2F8E010C5467368064A2A
:101350009B0A01331381B2E6A134002000ED00E0C6
:101360000400FA05D834002090240020CDCCCC3DD8
:101370006666663FA4340020014B1870704700BFBA
:101380009C24002038B54FF00054144B22689A4238
:1013900022D1607DF8B1124B0025C9221149187085
:1013A0001148237D0930C0F8DB5000F8013C4FF4B0
:1013B0008073C0F8EF314FF40073C0F803334FF47B
:1013C0004073C0F8173400F041FBE0222946204664
:1013D00000F062FB012038BD0020FCE79AAD44C557
:1013E0009C24002016000020D834002037B51A4D68
:1013F00000F016FE022300221849288118486B715C
:1014000001F07CFA002317494FF4805216480193EB
:10141000164B0093164B02F0EFF9164B197811B1E9
:10142000114802F011FA01F0A3FE0446FFF720FC78
:101430004FF4C873B0FBF3F202FB130304F516700C
:1014400010FA83F00C4B186004F012FD08B10F2362
:101450002B8103B030BD00BF9024002040420F001C
:10146000103A0020A0240020A8340020690F0008B2
:101470006D1000089C240020A43400202DE9F04FBA
:101480008C4C2DED028B85A7D7E9006795B00FF244
:101490001429D9E900899FED858BFFF71FFD0DAD5C
:1014A0000023DFF824B20C93ADF83C300D936B6051
:1014B00000234FF0010A0DF1250209A958468DF8C5
:1014C00025308DF824A08DED008B01F0B9FD9DF83D
:1014D00024200023002A40F0AE80204602F0BCF910
:1014E0000546002847D1DFF8E4B101F041FEDBF802
:1014F000003098423FD301F03BFE0790FFF7B8FB66
:101500004FF4C873079AB0FBF3F101FB130302F524
:10151000167010FA83F0CBF8000010A8DFF8B0B115
:101520009BF80010002914BF2B46534607918DF8F5
:101530003030FFF7B5FB079910AB0DF13100C1F169
:1015400010021944D2B2062A28BF0622079200F0E0
:101550007DFA079A0CAB2046039301321823D2B2CE
:101560000293554B04923246CDE900A33B4602F06C
:10157000B9F98BF8005001F0FBFD504A504D13684B
:10158000C31AB3F57A7F32D3106001F0F3FD02463F
:101590000B46204602F03EFA204602F05DF930B3D9
:1015A0002B7A0DF1400BDFF82CA1002B14BF032385
:1015B00002238AF8053001F0DBFD4FF47A73012233
:1015C0005946B0FBF3F0CAF80000504600F0A8FB03
:1015D000182380B2424602933A4B019340F25513CE
:1015E000CDE903B0009320464B4602F07BF92B7AFD
:1015F000ABB101F0BDFD4FF0000A83464FF48A7293
:1016000095F8D900504400F0030002FB005393F812
:10161000E81071B30AF1010ABAF1040FF0D1C82041
:1016200003F026FE2B7A002B7FF435AF15B0BDEC0E
:10163000028BBDE8F08F1946102210A800F02CFA9A
:101640000DF126030AAA0CA9584600F0E9FF11ABD8
:1016500095E8030083E803009DF83C3010A920467C
:101660008DF84C300C9B1093DDE90A2302F0A6FBA9
:101670001EE7D3F8E01049B12B68ABEB0101FA2B60
:1016800038BFFA230533B1EB430FC3D3FFF7D6FBC3
:101690004FF48A720028BDD1C1E700BF401DA120D0
:1016A00026812A0BF1C6A7C1D068080F00000000F0
:1016B00000000000A8340020A0340020083A0020D8
:1016C000D83400200C3A0020103A0020A434002026
:1016D000A13400209024002008B5054801F046F808
:1016E000044A05490020BDE8084005F0CDBF00BF11
:1016F000103A00201C4F0020351000080F4B70B529
:101700001B780C460133DBB2012B11D80C4D4FF482
:101710007A732968A2FB033222460E6A01462846E4
:10172000B047844204D1074B002201201A7070BDDB
:101730004FF4FA7003F09CFD0020F8E71823002016
:10174000185200200C4F002000232DE9F0471A46C4
:10175000054688460120194602F09CFF0446802079
:1017600004F02AFA0746002861D0002C5FD03B4ED7
:1017700028464FF0800A736943F0C0637361D6F85E
:10178000143143F0C063C6F8143104F099F805EB46
:10179000080200FB05F34FF4D06C50434FF03D0EB0
:1017A000834233D23269520143D4D6F81021510119
:1017B0003FD4216803F100628A602268D760226802
:1017C000C2F804A02268C2F800C0D4F80090D9F88A
:1017D000002042F00102C9F80020D4F80090D9F8A6
:1017E000002022F01E02C9F80020D4F80090D9F899
:1017F0000020D207FBD494F80C90803361680EFA75
:1018000009F20A60CCE7002004F038F9204602F023
:1018100077FF384604F006FA104B5A6942F0C0626E
:101820005A61D3F8142142F0C062C3F81421BDE814
:10183000F0870B4B9A6A42F400729A629A6A42F4F9
:1018400000429A6261B60026012004F017F9B04503
:10185000D9D9A819013604F04BF8F8E70020005256
:1018600000ED00E0002307B5024601210DF107005D
:101870008DF80730FFF742FF20B19DF8070003B055
:101880005DF804FB4FF0FF30F9E700000A46042141
:1018900008B5FFF733FF80F00100C0B2404208BD39
:1018A00030B4054C0A46014623682046DD69034BE7
:1018B000AC4630BC604700BF18520020A086010033
:1018C00070B5104C0025104E03F0FEFF20803068EC
:1018D000238883420CD800252088013803F0F0FFCC
:1018E00023880544013BB5F5802F2380F4D370BDD8
:1018F00003F0E6FF336805440133B5F5802F33600C
:10190000E5D3E8E70E4F0020E04E002004F0B6B823
:1019100000F1006000F580200068704700F1006071
:10192000920000F5802004F02BB80000054B1A68E7
:10193000054B1B889B1A834202D9104403F0C0BF99
:1019400000207047E04E00200E4F0020024B1B6825
:10195000184403F0BBBF00BFE04E0020024B1B68E1
:10196000184403F0C5BF00BFE04E002000207047C0
:1019700000F1FF5000F58F10D0F80008704700000C
:10198000064991F8243033B100230822086A81F80F
:101990002430FFF7C3BF0120704700BFE44E002092
:1019A000014B1868704700BF0010005C194B0138EC
:1019B0000322084470B51D68174BC5F30B042D0CAA
:1019C0001E88A6420BD15C680A46013C824213463F
:1019D0000FD214F9016F4EB102F8016BF6E7013A2C
:1019E00003F10803ECD181420B4602D22C2203F80A
:1019F000012B0424094A1688AE4204D1984284BFC0
:101A0000967803F8016B013C02F10402F3D1581AF5
:101A100070BD00BF0010005C1C2300208C77000804
:101A200070470000704700007047000070B5044622
:101A30004FF47A764CB1412C254628BF412506FB50
:101A400005F0641B03F014FCF4E770BD002310B52F
:101A5000934203D0CC5CC4540133F9E710BD0000BD
:101A6000013810B510F9013F3BB191F900409C429B
:101A700003D11AB10131013AF4E71AB191F900200A
:101A8000981A10BD1046FCE703460246D01A12F918
:101A9000011B0029FAD1704702440346934202D049
:101AA00003F8011BFAE770472DE9F8431F4D144670
:101AB0000746884695F8242052BBDFF870909CB307
:101AC00095F824302BB92022FF2148462F62FFF7DA
:101AD000E3FF95F824004146C0F1080205EB8000C1
:101AE000A24228BF2246D6B29200FFF7AFFF95F878
:101AF0002430A41B17441E449044E4B2F6B2082ECE
:101B000085F82460DBD1FFF73BFF0028D7D108E040
:101B10002B6A03EB82038342CFD0FFF731FF00280B
:101B2000CBD10020BDE8F8830120FBE7E44E002084
:101B3000024B1A78024B1A70704700BF0C4F0020FE
:101B40001823002010B5114C114802F08FFE2146D9
:101B50000F4802F0B7FE24684FF47A70D4F8902052
:101B6000D2F8043843F00203C2F80438FFF75EFFEE
:101B70000849204602F0D6FFD4F89020D2F8043865
:101B800023F00203C2F8043810BD00BFF879000842
:101B900018520020007A00087047000008B571B69E
:101BA000054B1988054B1888FFF7CEFD02210E2042
:101BB000FFF7CAFD61B608BD0E4F0020E04E0020C1
:101BC0002DE9F3470D46044600219046284640F291
:101BD0007912FFF761FF234620220021284604F1F5
:101BE000220702F08DF8231D022220212846C0265C
:101BF00002F086F8631D03222221284602F080F8B5
:101C0000A31D03222521284602F07AF804F10803D7
:101C100010222821284602F073F804F1100308224C
:101C20003821284602F06CF804F111030822402103
:101C3000284602F065F804F11203082248212846DC
:101C400002F05EF804F1140320225021284602F02D
:101C500057F804F1180340227021284602F050F88A
:101C600004F120030822B021284602F049F804F1CB
:101C700021030822B821284602F042F831460836EE
:101C80003B4608222846013702F03AF8B6F5A07F15
:101C9000F4D194F83230314604F1330A00268DF83D
:101CA000073008220DF10703284602F029F89DF8B5
:101CB00007304FEAC6099E4209F5A47720D394F86D
:101CC0003231502B28BF50238DF80730B8F1000F68
:101CD00008D1394609F24F170DF1070307222846AC
:101CE00002F00EF8002604F233149DF8073007EBDB
:101CF000C6019E420DD30731C80802B0BDE8F08787
:101D00000AEB0603082239462846013601F0F8FF9F
:101D1000CDE7A31908222846013601F0F1FFE4E7D8
:101D200013B5044608460021202223460190016095
:101D3000C0F8031001F0E4FF231D019802222021C6
:101D400001F0DEFF631D01980322222101F0D8FF7C
:101D5000A31D01980322252101F0D2FF019804F16F
:101D600008031022282101F0CBFF072002B010BD8C
:101D7000F7B5047F05460E462CB1838A122B02D993
:101D8000012003B0F0BD0023072228460096194623
:101D900001F07AFE731C01220721009328460023DC
:101DA00001F072FED4B9B31C052208212846009325
:101DB00023460D2401F068FEB378102BE0D8374697
:101DC000BB1BB278934210D307342B7FA88AE40858
:101DD000B3B9844294BF00200120D2E7AB8A082423
:101DE000DB00083BDB08B370E6E7FB1C214608225A
:101DF0002846009300230834013701F045FEDFE751
:101E0000201A18BF0120BCE7F7B5047F05460E462F
:101E10002CB1838ACA2B02D9012003B0F0BD002364
:101E2000082228460096194601F02EFE731CD4B9EC
:101E300008220093234610241146284601F024FE70
:101E40007378C82BE8D801235F1C7278013B93425A
:101E500010D307342B7FA88AE408B3B9844294BF17
:101E600000200120D9E7AB8A0824DB00083BDB080F
:101E70007370E5E7F31921460822284600930023F2
:101E800001F002FE08343B46DEE7201A18BF0120AD
:101E9000C3E70000F7B50D46044600211646284664
:101EA0008122FFF7F9FD234608220021284601F090
:101EB00027FF94F901206378002AB8BF7F238DF8AB
:101EC00007309EB90F270DF1070307220821284686
:101ED00001F016FF002602349DF8073007EBC6011B
:101EE0009E4205D30731C80803B0F0BD0827F1E7CB
:101EF000A31908222846013601F002FFECE7000092
:101F0000F7B50E460546002114463046CE22FFF7AF
:101F1000C3FD2B4628220021304601F0F1FE2B7A2A
:101F2000C82B28BFC8238DF807308CB930240DF199
:101F3000070308222821304601F0E2FE2F467B1BD2
:101F40009DF80720934205D3E01DC00803B0F0BD03
:101F50002824F3E707F10903214608223046083414
:101F6000013701F0CDFEEAE7F7B5047F05460E46DE
:101F700034B1838AB3F5827F02D9012003B0F0BD6A
:101F80000123102200212846009601F07DFDDCB9D6
:101F9000B31C09221021284600932346192401F07E
:101FA00073FD7388B3F5807FE7D83746BB1B728813
:101FB000934210D307342B7FA88AE408B3B9844234
:101FC00094BF00200120D9E7AB8A1024DB00103B2E
:101FD000DB087380E5E73B1D214608222846009375
:101FE00000230834013701F04FFDDFE7201A18BF46
:101FF0000120C3E730B50A44084D91420DD011F8D5
:10200000013B5840082340F30004013B2C4013F0EF
:10201000FF0384EA5000F6D1EFE730BD2083B8ED2E
:10202000F7B5384A6B46106851686A4603C30823FF
:102030003549364805F04CFB0446002833D10A25C3
:10204000334A6B46106851686A4603C30823314916
:102050002E4805F03DFB0446002849D00369B3F53E
:10206000E01F45D8B0F8661043F2390291423FD1E3
:10207000294A024402F15C018B4239D35C3B23497B
:1020800000209E1AFFF7B6FF04F1640107463246AE
:102090000020FFF7AFFFA3689F4229D1E368984271
:1020A00008BF002524E00369B3F5E01F27D8418B62
:1020B00043F23902914220D1174A024402F1100141
:1020C0008B4218D3103B114900209D1AFFF792FF55
:1020D00004F1180106462A460020FFF78BFFA3688B
:1020E0009E4202D1E368984201D00D25A8E7002561
:1020F000284603B0F0BD1025A2E70C25A0E70B256C
:102100009EE700BF9C770008DCFF1B00000004086E
:10211000A577000890FF1B000800FCF710B5037CB2
:10212000044613B9006803F07DFD204610BD000091
:102130000023BFF35B8FC360BFF35B8FBFF35B8F85
:102140008360BFF35B8F7047BFF35B8F0068BFF3A3
:102150005B8F704770B505460C30FFF7F5FF0446FE
:1021600005F108063046FFF7EFFFA04206D96D687B
:102170003046FFF7E9FF2544281A70BD3046FFF7C7
:10218000E3FF201AF9E7000070B505464068A0B1EA
:1021900005F10C0605F10800FFF7D6FF04463046AE
:1021A000FFF7D2FF844204F1FF34304694BF6D68DC
:1021B0000025FFF7C9FF2C44201A70BD38B50C4626
:1021C0000546FFF7C7FFA04210D305F10800FFF74F
:1021D000BBFF04446868BFF35B8FB4FBF0F100FB06
:1021E00011440120AC60BFF35B8F38BD0020FCE7D9
:1021F0002DE9F041144607460D46FFF7C5FF84421E
:1022000028BF0446D4B1B84658F80C6B4046FFF7D7
:102210009BFF3044286040467E68FFF795FF331AE5
:102220009C4203D801206C60BDE8F081A41B6B6068
:102230003B682044AB60E8600220F5E72046F3E706
:1022400038B50C460546FFF79FFFA04210D305F1B5
:102250000C00FFF779FF04446868BFF35B8FB4FBA1
:10226000F0F100FB11440120EC60BFF35B8F38BD3F
:102270000020FCE72DE9FF418846694607466C4689
:10228000FFF7B6FF002506B204EBC606B4420AD03B
:10229000626808EB050120680834FFF7D7FB54F8A3
:1022A000043C1D44F2E729463846FFF7C9FF28469B
:1022B00004B0BDE8F0810000F8B505460C300F46CB
:1022C000FFF742FF05F1080604463046FFF73CFFE2
:1022D000A042304688BF6C68FFF736FF201A38608E
:1022E00020B12C683046FFF72FFF2044F8BD0000D6
:1022F00073B5144606460D46FFF72CFF8442019045
:1023000028BF0446DCB101A93046FFF7D5FF019B89
:1023100033B93268C5E90233C5E9002401200CE075
:102320009C42286038BF0194019884426860F5D9C6
:102330003368241A0220AB60EC6002B070BD204606
:10234000FBE700002DE9FF410F4669466C46FFF7A9
:10235000CFFF00B2002604EBC005AC4209D0D4F890
:102360000480B81954F8081B42464644FFF76EFB38
:10237000F3E7304604B0BDE8F081000038B505460B
:10238000FFF7E0FF044601462846FFF717FF204607
:1023900038BD000008B103F045BC7047704700002D
:1023A000036800221B68184700F5805090F8690404
:1023B0007047000000F5805090F8620470470000FC
:1023C00000F5805090F9680470470000302383F3D3
:1023D000118800F58052D2F8AC34D2F8A804184421
:1023E000D2F8A4341844D2F88C341844D2F89C346F
:1023F0001844D2F898341844002383F311887047A6
:1024000000F58050C0F86414012070472DE9FF47A3
:102410000C4600F580510546BDF8308091F8620405
:1024200098B1D1F888040130C1F88804206886008A
:1024300006D4207B08280BD9667B0EB10F2807D95C
:10244000D1F88C340133C1F88C344FF0FF30A9E05F
:10245000302080F31188A86BD0F8C47017F40017EF
:1024600013D0D1F890040130C1F89004D1F894143D
:10247000002940F09A8021462846CDF8008000F0DF
:10248000C7FE002383F311888CE0D0F8C4604FF0BE
:102490004809286BC6F3044619FB060920684FEA71
:1024A000461A0028B4BF40F0804C4FEA804CC9F86F
:1024B00000C02068400044BF4CF00050C9F8000044
:1024C000300694F80CC040EA0C40C9F8040094F8B7
:1024D0000DC0BCF1000F26D040F44010C9F8040034
:1024E000D1F8C0040130C1F8C00405EB0A0101F5C0
:1024F0008351087F40F020000877207BCDE902233C
:1025000000F0DEFE0330DDE902238010F9B201376E
:10251000814210DA04EB810C09EB8101DCF804C084
:10252000C1F808C0F2E705EB0A0101F58351087F05
:102530006CF34510E0E70120A96B04F10C07B040F3
:10254000C1F8D00006F18301204605EB4111C1E935
:10255000002305EB461101F58351083150F804CBF7
:10256000B84241F804CBF9D10088AA44088041F26E
:1025700078014AF801600AF5805A08F003019AF8D8
:102580007C0041F0100120F01F0001438AF87C100C
:10259000002181F3118821462846CDF8008000F003
:1025A00037FE012004B0BDE8F087002069E7000095
:1025B00013B500F580540191606DFFF7E5FD1F280C
:1025C0000AD920220199606DFFF754FEA0F1200383
:1025D0005842584102B010BD0020FBE708B5302337
:1025E00083F3118800F58050406DFFF7A1FD0023B3
:1025F00083F3118808BD00000022026082814260DE
:10260000826070470022002310B5C0E90023002338
:1026100004460C3020F8043CFFF7EEFF204610BDC6
:102620002DE9F0479A4688B0074688469146302300
:1026300083F3118807F580546846FFF7E3FF606D68
:10264000FFF788FD1F282ED920226946606DFFF70D
:1026500095FE202827D194F8623423B303AD444675
:1026600005AB2E46083403CE9E4244F8080C44F8CD
:10267000041C3546F5D130682060B388A380DDE9BD
:102680000023C9E90023BDF80830AAF80030002370
:1026900083F3118853464A464146384608B0BDE8A0
:1026A000F04700F073BD002080F3118808B0BDE84A
:1026B000F08700002DE9F84F0646884618220021D1
:1026C00004303546FFF7E8F9254B06F5825745F803
:1026D000403B2C4620462034FFF794FFA742F9D117
:1026E00006F580544FF4805306F5A4594FF0000AC4
:1026F0002564002567654FF0000B06F58457E564F7
:10270000C4E91135012384F8503084F85830A7F11A
:102710001800203747E910ABFFF76EFF47F8285C39
:102720004F45F4D184F86884A4F86A54A4F86C5432
:10273000A4F86E5484F87054A4F87254A4F8745435
:10274000A4F8765484F87854B8F1000F02D0054804
:1027500000F008FD044B3046B363BDE8F88F00BFBE
:10276000F0770008B077000800A00040044B10B5D7
:10277000197804464A1C1A70FFF79CFF204610BDCA
:10278000154F00202DE9F04300295AD02E4E2F4836
:10279000B6FBF1F481428CBF0A201120431EB4FB2A
:1027A000F0F700FB1740DDB220B1022B1846F5D838
:1027B000002032E07B1EB3F5806F2ED2C5EBC5083A
:1027C0004FF47A7308F103044FEAE40EC4F3C7042C
:1027D0000EF10109281B0EFB033E5FFA80FC59FA3B
:1027E00080F0BEFBF0F0B0F5617F18DC83B2601CB6
:1027F0005CFA80F07843B6FBF0F08142D8D1611EDC
:102800000F29D5D80CF1FF310729D1D80120138029
:1028100057801071547182F806C0BDE8F08308F14A
:10282000FF34E010C4F3C70400F1010E2D1B00FBC0
:1028300003335FFA85FC5EFA85F5B3FBF5F39BB2D3
:10284000D5E70846E9E700BF00B4C4043F420F00E3
:1028500030B50D4B05200D4D1C786C438C420ED1CC
:1028600059780120518099785171D97891711979ED
:1028700011715B7903EB83035B00138030BD01387A
:1028800003F10603E8D1F9E72C78000840420F0075
:1028900038B540F27772836B154CC3F8BC20072221
:1028A000836BC3F8C8202268816B930043F4C02374
:1028B000C1F8A03002F1805302F16C01856B03F581
:1028C0002C53EA3289009B00226041F0E061094A02
:1028D0008362C5F8C01003F5D87103F56A7301630C
:1028E0009342436302D9044800F03CFC38BD00BF6A
:1028F000184F0020FCB50040C47700082DE9F043D4
:1029000000F5805589B00446884695F86834174626
:10291000012B04D90026304609B0BDE8F0839C4A5B
:1029200052F8231009B942F823009A48C4F81C80D1
:102930000178C9B9302383F31188974BD3F8EC2081
:1029400042F48072C3F8EC20D3F8942042F48072F1
:10295000C3F89420D3F8942022F48072C3F8942012
:102960000123037081F3118895F861647EB93023E7
:1029700083F311880321132001F0CCFE03211520DD
:1029800001F0C8FE012385F8613486F311883023F5
:1029900083F31188A26B936923F01003936100F015
:1029A000E7FB8146A36B9E6916F0080609D000F08C
:1029B000DFFBA0EB0903FA2BF4D9002686F311887C
:1029C000A9E79A6942F001029A6100F0D1FB8146C1
:1029D000A36B9A69D00706D400F0CAFBA0EB0903E9
:1029E000FA2BF5D9E9E79A694FF0000942F00202A3
:1029F0009A61A36BC3F8549089F31188686DFFF74F
:102A000097FB202200216846FFF746F802A8FFF74F
:102A1000F3FD04F583536A460DF1180E3344CDF8E7
:102A2000189094460833BCE80300F44543F8080CBA
:102A300043F8041C6246F4D1DCF80000203618602C
:102A4000B6F5806F9CF804201A71DAD1002304F5E2
:102A5000A352414620460A3285F8603485F8633433
:102A6000FFF790FE064690B9A26B936923F001032D
:102A7000936100F07DFB0546A36B9B69D9077FF549
:102A800049AF00F075FB431BFA2BF5D942E795F8E7
:102A90006E34C5F87C84591E95F86F34A26B013BE7
:102AA0001B0243EA416395F8701401390B43B5F8F2
:102AB0006C14013943EA0143D361002F36D004F589
:102AC000A352394620461232FFF7C2FE90B9A26BDC
:102AD000936923F00103936100F04AFB0546A36B61
:102AE0009B69DA077FF516AF00F042FB431BFA2B18
:102AF000F5D90FE795F87734C5F88074591E95F825
:102B00007834A26B013B1B0143EA012395F876144C
:102B100001390B43B5F87414013943EA014343F416
:102B20000003D3604FF42062A36B9A64A36B002769
:102B30002046C3F8BC70FFF7ABFE85F869746FF0F0
:102B40004042A36B1A65154AA36B5A654FF00222E7
:102B5000A36B9A654FF0FF32A36BC3F8E02003220A
:102B6000A36BDA65A26B936923F00103936100F014
:102B7000FFFA0746A36B9B69DB0705D500F0F8FA5F
:102B8000C31BFA2BF6D9C5E6012385F86234C2E6E9
:102B9000104F0020144F002000440258550200023C
:102BA0002DE9F04F00F5A5578BB0054690469946A4
:102BB0004FF0000B41F2780A1037AB6BD3F8D830E6
:102BC00023FA0BF3DC0753D505EB4B114FEA4B12FD
:102BD00051440B7918074BD405F58056D6F8943438
:102BE0000133C6F89434C7E900890B79990605EBDF
:102BF000020148BFD6F8C434514444BF0133C6F87B
:102C0000C4340B7943F008030B71DB0725D596F824
:102C1000633413B305F5835402A80192FFF7F2FC65
:102C20000834019A05AB144404F1080C20680834F8
:102C300054F8041C1A46644503C21346F6D12068B2
:102C400002A910602846A2889A800123ADF81030AE
:102C50002B68CDE902899B6B9847D6F8B834D6F833
:102C600064040133C6F8B83410B103681B6998478F
:102C70000BF1010BBBF1200F9FD10BB0BDE8F08F22
:102C80002DE9F04F0F468DB0044600F073FA8246EE
:102C90008946002F5BD1A36BD3F8A02012F4FE0F5E
:102CA00003D100200DB0BDE8F08FD3F8A42092012D
:102CB00041BF04F58051D1F8A8240132C1F8A824FD
:102CC000D3F8A4205606ECD0D3F8A450A66AC5F3D6
:102CD00005254823E8464FF0000B03FB05664046F8
:102CE000FFF78AFC326851004ABF22F06043C2F30A
:102CF0008A4343F00043920048BF43F0804300936F
:102D0000736813F400131BBF012304F580528DF880
:102D10000D308DF80D301EBFD2F8C8340133C2F823
:102D2000C834F38803F00F038DF80C309DF80C00C5
:102D300000F0C6FA5FFA8BF3984225D9F2180CA975
:102D40000BF1010B127A0B4403F82C2CEEE7012F48
:102D5000A7D1A36BD3F8B02012F4FE0FA1D0D3F803
:102D6000B420950141BF04F58051D1F8A824013267
:102D7000C1F8A824D3F8B420500692D0D3F8B450A8
:102D8000E66AC5F30525A4E7EFB9A36BC3F8A8501D
:102D900004A807ADFFF736FC98E80F0007C52B80A5
:102DA0000023204604A9ADF81830236804F58054A8
:102DB0009B6BCDE904A9984758B1D4F8A0340133EE
:102DC000C4F8A0346EE7012FE2D1A36BC3F8B8506A
:102DD000DEE7D4F8A43401200133C4F8A43461E759
:102DE0002DE9F04105460F4600F58054012639468D
:102DF0002846FFF745FF10B184F86364F7E7D4F87D
:102E0000B834D4F864040133C4F8B83420B103688A
:102E1000BDE8F0411B691847BDE8F081836BF0B550
:102E20001A6C12F47F0F2BD01B6C00F5805441F20A
:102E300078054FF0010CC4F8BC340023471900EBAF
:102E400043125E012A44117911F0020F15D049078F
:102E500013D4B959866B0CFA01F1D6F8CCE011EA1B
:102E60000E0F0AD0C6F8D410117941F00401117187
:102E7000D4F89C240132C4F89C240133202BDED1E9
:102E8000F0BD000010B5264C264B22680AB340B3B3
:102E90001A6D92050FD54FF400721A6500F06AF9A9
:102EA00050EA01020B4602D0013861F100030246EC
:102EB0002068FFF775FE1B4A136D9B012AD5236816
:102EC0004FF0007103F580531165012283F86924E6
:102ED00020E001221A6510221A654FF480521A650B
:102EE00010BD196DC80702D4196D490705D5052114
:102EF000104619650021FFF773FF0A4B1A6DD006C3
:102F000002D41A6D510605D5502201211A65206898
:102F1000FFF766FF2068BDE81040FFF77FBF00BFE6
:102F2000104F002000A0004008B5302383F3118823
:102F3000FFF774FF002383F3118808BD836BD3F878
:102F4000C00010F07C5005D0D3F8C40080F400100D
:102F5000C0F340507047000008B5302383F3118858
:102F600000F58050406DFFF7F5F8002383F31188DA
:102F700043090CBF0120002008BD000000F580536C
:102F800093F8692462B1816B8A6922F001028A6137
:102F9000D3F8AC240132C3F8AC24002283F86924AE
:102FA000704700002DE9F743302181F31188002597
:102FB00000F5835141F2780E4FF0010800F5805C76
:102FC00000EB45147444267977071CD4F6061AD50D
:102FD0008E69D0F8389008FA06F6D9F8CC703E42DF
:102FE00011D04F6801970F689742019F9F410AD205
:102FF000C9F8D460267946F004062671DCF89844B6
:103000000134CCF8984401352031202DD8D100234B
:1030100083F3118803B0BDE8F0830000F8B51E46C5
:1030200000230F46054613701446FFF795FF80F006
:10303000010038701EB12846FFF780FF2070F8BDF0
:103040002DE9F04F85B099460D468046164691F819
:1030500000B0DDE90EA302931378019300F08AF823
:103060002B7804460F4613B93378002B41D0224603
:103070003B464046FFF796FFFFF756FFFFF77EFF00
:103080004B4632462946FFF7C9FF2B7833B1BBF1D7
:10309000000F03D0012005B0BDE8F08F337813B1E5
:1030A000019B002BF6D108F5805303935445029BF6
:1030B00077EB03031DD2039BD3F86404C8B1036804
:1030C000AAEB04011B6898474B4632462946404606
:1030D000FFF7A4FF2B7813B1BBF1000FDAD13378DF
:1030E00013B1019B002BD5D100F044F804460F46E4
:1030F000DCE70020CFE7000008B50020FFF7C2FEA4
:10310000BDE8084001F0BCB808B50120FFF7BAFEE1
:10311000BDE8084001F0B4B800B59BB0EFF30981F9
:1031200068226846FEF792FCEFF30583014B9B6B28
:10313000FEE700BF00ED00E008B5FFF7EDFF00007F
:1031400000B59BB0EFF3098168226846FEF77EFC6C
:10315000EFF30583014B5B6BFEE700BF00ED00E082
:10316000FEE700000FB408B5029802F027F8FEE76A
:1031700002F086BD02F068BD0139C9B202299EBFC6
:1031800000EBC1000023C0E9013370472DE9F8438B
:103190001E461B88054688465B0718D4044600F186
:1031A00018094C4513D063686BB12B6828465B6BDC
:1031B00098473388C1B2A76843F004034246606869
:1031C000B8470834EDE7A368002BEED1F9E70120FA
:1031D000BDE8F88373B56C4684E80600014600221A
:1031E0004E68D5B26EB98E685EB900EBC20001358B
:1031F000021D94E8030082E8030001201D7002B064
:1032000070BD01320831032AEAD10020F7E700003F
:103210002DE9F04F2DED028B89B004468B46054613
:10322000BDF8508000F11809002708F0040A9FED4E
:10323000228BA94537D06B680BB9AB6863B1BAF183
:10324000000F0BD1236820465B6B98474346C1B201
:103250005A46D5E90106B0470835EAE7002FFBD109
:103260005B4603AA0BF1080CADF808708DED008BDE
:103270001868083353F8041C1746634503C73A46D9
:10328000F6D1186838609B88BB800127FFF772FF72
:103290000423ADF808302368CDE900019B6B694633
:1032A00020469847D8E7012009B0BDEC028BBDE865
:1032B000F08F00BFAFF300800000000000000000AE
:1032C000082817D909280CD00A280CD00B280CD0B4
:1032D0000C280CD00D280CD00E2814BF4020302014
:1032E00070470C207047102070471420704718203A
:1032F00070472020704700002DE9F041456A15B95C
:103300004162BDE8F0814B68AC4623F06047C3F3EF
:103310008A464FEAD37EC3F3807816EA230638BF85
:103320003E462B465A68BEEBD27F22F060440AD05C
:10333000002A18DAA40CB44217D19D420FD10D60B7
:10334000DEE71346EEE7A74207D102F08044C2F35E
:10335000807242450BD054B1EFE708D2EDE7CCF8CC
:1033600000100B60CDE7B44201D0B442E5D81A6832
:103370009C46002AE5D11960C3E700002DE9F0471B
:10338000089D01F0070400EBD1004FF47F494FEA9C
:10339000D508224405F00705944201D1BDE8F08725
:1033A00004F0070705F0070A111B08EBD50E574577
:1033B0003E4613F80EC038BF5646C6F108068E4288
:1033C00028BF0E46E108415C34443544B94029FA2F
:1033D00006F721FA0AF1FFB28CEA010147FA0AF76F
:1033E00039408CEA010C03F80EC0D5E780EA0120D1
:1033F000082341F2210201B2013B4000002980B2C2
:10340000B8BF504013F0FF03F5D1704738B50C46F4
:103410008D18A54200D138BD14F8011BFFF7E6FF57
:10342000F7E7000042684AB1136881894360438925
:1034300001339BB29942438138BF83811046704764
:1034400070B588B0044620220D4668460021FEF77C
:1034500023FB20460495FFF7E5FF024660B16B466B
:10346000054608AE1C46083503CCB44245F8080CA6
:1034700045F8041C2346F5D1104608B070BD000085
:10348000082817D909280CD00A280CD00B280CD0F2
:103490000C280CD00D280CD00E2814BF4020302052
:1034A00070470C2070471020704714207047182078
:1034B0007047202070470000082817D90C280CD925
:1034C00010280CD914280CD918280CD920280CD96C
:1034D00030288CBF0F200E207047092070470A202B
:1034E00070470B2070470C2070470D20704700007C
:1034F0002DE9F843078C0446072F1ED900254FF607
:10350000FF73D0E90298C5F12006A5F1200029FA41
:1035100005F1083508FA06F628FA00F031430143B0
:103520001846C9B2FFF762FF402D0346EBD13A4679
:10353000E169BDE8F843FFF769BF4FF6FF70BDE8EA
:10354000F883000010B54B6823B9CA8A63F30902F7
:10355000CA8210BD04691A681C600361C38A013BFA
:10356000C3824A60EFE700002DE9F84F1D46CB8A81
:103570000F468146C3F30901924605290B4630D018
:103580000020AAB207F11A049EB21FFA80F8042E96
:103590000FD8904503F1010306D30A44FB8A62F376
:1035A00009030120FB821AE01AF800600130E6549A
:1035B000EAE79045F1D2A1F1050B1C237C68BBFB27
:1035C000F3F203FB12BB1FFA8BF6002C45D14846E1
:1035D000FFF728FF044638B978606FF00200BDE8B5
:1035E000F88F4FF00008E6E7002606607860ADB27D
:1035F0004FF0000B454510D90AEB0803221D13F8C4
:10360000011B08F101089155B1B21FFA88F81B2976
:103610002BD0454506F10106F1D8FB8AC3F3090218
:10362000154465F30903BCE701321C4692B22368D6
:10363000002BF9D16B1F0B441C21B3FBF1F30133B9
:103640009BB29A42D3D2BBF1000FD0D14846FFF7CC
:10365000E9FE20B9C4F800B0BFE70122E7E7C0F8EF
:1036600000B05E4620600446C1E74545D5D94846CE
:10367000FFF7D8FE08B92060AFE7C0F800B0002619
:1036800020600446B6E700002DE9F04F1C460746CF
:1036900088462DED028B83B05B690192002B00F010
:1036A000A780238C2BB1E269002A00F0A180072BB0
:1036B00035D807F10C00FFF7B5FE054638B96FF0B5
:1036C0000205284603B0BDEC028BBDE8F08F142242
:1036D0000021FEF7E1F9228CE16905F10800FEF70F
:1036E000B5F9208C48F00041013080B2FFF7E4FECC
:1036F000FFF7C6FE013880B22084013028743846B6
:103700006369228C1B782A4403F01F0363F03F0394
:10371000137269602946FFF7EFFD0125D1E70233F7
:103720000722C18A9BB20633B3FBF2F3828A9BB2B3
:10373000521A92B29342C2D84FF0000900F10C0322
:103740004FF0800A4E464D4608EE103A18EE100A29
:10375000FFF768FE83460028B1D014220021FEF74F
:103760009BF9002E3AD1019B0222ABF808300BF1F5
:10377000080E1FFA82FC218C0CF10100BCF1060F2F
:1037800080B201D88E422BD3FFF796FE8E4208BF3F
:103790004FF0400AFFF774FE626901380135127874
:1037A0001BFA80F1013002F01F022DB242EA4912E9
:1037B00089F001094AEA020A48F0004281F808A0AB
:1037C00059468BF810003846CBF804204FF0000A19
:1037D000FFF792FD238CB342B8D172E70022C6E70F
:1037E000E169895D01360EF80210B6B20132C0E718
:1037F0006FF0010565E70000F8B515460E4630226A
:10380000002104461F46FEF747F9069BB5F5001F49
:10381000A760636004F11000079B34BF6A094FF68C
:10382000FF72E661A362002397B29A4206D8002392
:103830000360A782E3822383E360F8BD066001335F
:1038400030462036F1E7000003781BB94BB2002B5D
:10385000C8BF01707047000000787047F8B50C468B
:10386000C969074611B9238C002B37D1257E1F2D3E
:1038700034D8387828BB228C072A2CD8268A36F0F0
:1038800003032BD14FF6FF70FFF7C0FD20F00100BE
:1038900031024FF6FF72400441EA0561400C41EAF3
:1038A0004025234629463846FFF7EEFE002807DD6F
:1038B000626913780133DBB21F2B88BF00231370BA
:1038C000F8BD218A2D0645EA012505432046FFF76C
:1038D0000FFE0246E5E76FF00300F1E76FF001002D
:1038E000EEE7000070B58AB0044616460021282293
:1038F00068461D46FEF7D0F8BDF8383069462046C8
:10390000ADF810300F9B05939DF840308DF81830BE
:10391000119B0793BDF84830CDE90265ADF8203022
:10392000FFF79CFF0AB070BD2DE9F041D369054651
:103930000C4616460BB9138C5BBB377E1F2F28D85D
:1039400095F80080B8F1000F26D03046FFF7D0FD83
:10395000337821020246284641EAC331338A41EADC
:10396000080141EA076141EA0341334641F0800121
:10397000FFF78AFE00280ADD3378012B07D1726930
:1039800013780133DBB21F2B88BF00231370BDE80F
:10399000F0816FF00100FAE76FF00300F7E7000035
:1039A000F0B58BB004460D46174600212822684624
:1039B0001E46FEF771F89DF84C30294620465A1EE7
:1039C000534253416A468DF800309DF84030ADF8BF
:1039D0001030119B05939DF848308DF81830149BDA
:1039E0000793BDF85430CDE90276ADF82030FFF7EB
:1039F0009BFF0BB0F0BD0000406A00B1043070477F
:103A0000436A1A68426202691A600361C38A013B11
:103A1000C38270472DE9F041D0F8208014461D463E
:103A2000184E4146002709B9BDE8F081D1E90223CB
:103A3000A21A65EB0303964277EB03031ED2036AD7
:103A40008B420DD1FFF77EFD036A1B680362036999
:103A50000B60C38A0161013B016AC3828846E2E7C9
:103A6000FFF770FD0B68C8F8003003690B60C38A6C
:103A70000161013BC382D8F80010D4E78846096889
:103A8000D1E700BF80841E002DE9F04F8BB00D46BA
:103A900014469B46DDF850908046002800F01881BF
:103AA000B9F1000F00F01481531E3F2B00F210817A
:103AB000012A03D1BBF1000F40F00A810023CDE9B8
:103AC0000833B8F81430B5EBC30F4FEAC30703D37C
:103AD00000200BB0BDE8F08F2B199F42D8F80C30B6
:103AE00036BF7F1B2746FFB21BB9D8F81030002B1A
:103AF0007AD0272D4DD8C5F1280600232946B74294
:103B0000009308ABD8F808002CBFF6B23E46A7EBEE
:103B1000060A354432465FFA8AFAFFF72FFCB8F8F6
:103B20001430282103F10053053BDB000493D8F83F
:103B30000C300393039B13B1BAF1000F2CD1D8F8CA
:103B4000100040B1BAF1000F05D008AB5246691A17
:103B50000096FFF713FC38B2002FB9D066070AD0E1
:103B60000AAB624203EBD40102F0070211F8083CF1
:103B7000134101F8083C082C3DD9102C40F2B580C7
:103B8000202C40F2B780BBF1000F00F09C8008238E
:103B900035E0BA460026C2E7049BE02B28BFE023AD
:103BA00006930B44AB42059315D95A1B0398691A27
:103BB0000096924508AB00F1040034BF5246D2B2E1
:103BC0000792FFF7DBFB079A1644AAEB020A15449B
:103BD000F6B25FFA8AFA049B069A05999B1A049337
:103BE000039B1B680393A5E700933A4608AB29465D
:103BF000D8F80800ADE7BBF1000F13D00123B4EBF8
:103C0000C30F6BD0082C12D89DF82030621E23FA07
:103C100002F2D50706D54FF0FF3202FA04F423432F
:103C20008DF820309DF8203089F8003051E7102CB5
:103C300012D8BDF82030621E23FA02F2D10706D551
:103C40004FF0FF3202FA04F42343ADF82030BDF800
:103C50002030A9F800303CE7202C0FD80899631ECB
:103C600021FA03F3DA0705D54FF0FF3202FA04F424
:103C70000C430894089BC9F800302AE7402C2AD04E
:103C8000611EC4F12102A4F12103DDE9086526FAD1
:103C900001F105FA02F225FA03F311431943CB07A8
:103CA00011D50122A4F12003C4F1200102FA03F38B
:103CB00022FA01F1A2400B43524263EB4303324329
:103CC0002B43CDE90823DDE90823C9E9002300E7F8
:103CD0006FF00100FDE66FF00800FAE6082CA1D9AC
:103CE000102CB4D9202CEED8C4E7BBF1000FAED015
:103CF000022384E7BBF1000FBCD004237FE7000060
:103D0000012A30B5144638BF012485B00025402C67
:103D100028BF4024012ACDE9025518D81B788DF818
:103D2000083063070AD004AB624203EBD40502F00B
:103D3000070215F8083C934005F8083C034600913B
:103D40002246002102A8FFF719FB05B030BD082A62
:103D5000E4D9102A03D81B88ADF80830E1E7202AFF
:103D600095BF1B68D3E900230293CDE90223D8E76E
:103D700010B5CB681BB98B600B618B8210BD0469D9
:103D80001A681C600361C38A013BC382CA60F0E702
:103D900003064CBFC0F3C0300220704708B502468E
:103DA000FFF7F6FF022806D15306C2F30F2001D118
:103DB00000F0030008BDC2F30740FBE72DE9F04F18
:103DC00093B004460D46CDE904230A681046FFF778
:103DD000DFFF0228824614BFC2F306260026002A0F
:103DE00080F2038212F0C04940F0FF81097B002974
:103DF00000F0FB81022803D02378B34240F0F88121
:103E0000C2F3046310462944069302F07F03039330
:103E1000FFF7C4FF039B002283464FEA8348002339
:103E200048EA0A4848EA4668CE78CDE90823F3090B
:103E300048EA0008029368D0039B024608A920467E
:103E4000009353466768B847002869D0276A4FB97E
:103E5000414604F10C00FFF7F3FA074690B96FF002
:103E600002006BE03B6998450DD03F68002FF9D107
:103E7000414604F10C00FFF7E3FA07460028EED0B4
:103E8000236A3B60276297F817C006F01F08CCF33F
:103E9000840CACEB0800A8EB0C031FFA80FE002892
:103EA000B8BF0EF120001FFA83FEB8BF00B2002B8E
:103EB0000793B8BF0EF12003D7E90221BCBF1BB2A4
:103EC000079352EA010342D0049B4FF0000CDFF845
:103ED00030E39A1A059B63EB010196457CEB0103E5
:103EE00035D36B7B97F81AE0734521D1029B002BE9
:103EF00000F0848001282ADC786840BBDFF8FCC22F
:103F0000944570EB010343D21EE0276A5FB9039B1F
:103F10005A4608A92046009353466568A84768BBDF
:103F20006FF00B000AE03B699845ACD03F68EDE7C5
:103F3000B24890427CEB010303D3002013B0BDE8EC
:103F4000F08F029B002BF8D0079B0F2B19DCFA7D1A
:103F5000B3003946204602F0030203F07C0313430A
:103F6000FB75FFF7EFFA6B7BBB76029B4BB9FB7DD2
:103F7000C3F38402013262F38603FB756FF00C0019
:103F8000DCE76A7BBB7E9A42D7D1029B002B35D0FF
:103F9000B309022B32D0049B142200210DA8BB6070
:103FA000059BFB60FDF778FD049B0AA920460A9358
:103FB000059BADF83EB00B932B1D8DF840A00C93E4
:103FC0002B7B8DF84180013BDBB2ADF83C30069B8A
:103FD0008DF84230039B8DF8433094F82C3083F0F9
:103FE00001038DF84430A3689847FB7DC3F3840335
:103FF000013303F01F039B02FB829EE7FB7DC6F3A8
:104000004012B2EBD31F40F0F680C3F38403434564
:1040100040F0F880029AB6092B7B002A52D016F0A5
:10402000010661D1032B40F2F080049B394604F174
:104030000C00BB60059BFB60FB8A66F30903AE1DA9
:10404000FB8232462B7B033BDBB2FFF78DFA002865
:104050000CDA39462046FFF775FAFB7DC3F384037B
:10406000013303F01F039B02FB82F8E6AB88DDE916
:1040700008843B834FF6FF73C9F12000A9F12002A9
:1040800028FA09F109F1080904FA00F024FA02F209
:10409000014318461143C9B2FFF7A8F9B9F1400F1F
:1040A0000346E9D1B88231462A7B033AD2B2FFF700
:1040B000ADF9FB7DB882DA43C2F3C01262F3C713D5
:1040C000FB753AE786B92E1D013B394604F10C0019
:1040D000DBB23246FFF748FA0028BADB2A7B3146CA
:1040E000B88A013AD2B2E2E7F98A013BC1F3090189
:1040F000DAB204295BD8281D002307F11B069A4277
:1041000008D910F801CB013306F801C00131DBB248
:104110000529F4D1049993420A9138BF04330599D3
:104120002CBF002355FA83F30B9107F11B010C916F
:1041300079680E930D91291DFB8AADF83EB0C3F34B
:1041400009038DF840A08DF841801A44069B8DF834
:104150004230039BADF83C208DF8433094F82C306E
:1041600083F001038DF844300023B88A7B602A7BFA
:10417000013AFFF74BF93B8BB882834203D1A36826
:104180000AA92046984720460AA9FFF7F1FDFB7DC2
:10419000BA8AC3F38403013303F01F039B02FB823B
:1041A0003B8B9A420CBF00206FF01000C6E67B6884
:1041B000002BAFD0052001E01C3033461E68002ED6
:1041C000FAD1091A2E1D081D184401EB090C5FFADB
:1041D00089F3BCF11B0F9DD89A429BD916F8013B7D
:1041E00009F1010900F8013BEFE76FF00900A5E6CE
:1041F0006FF00A00A2E66FF00D009FE640420F004C
:1042000080841E006FF00E0098E66FF00F0095E6B8
:10421000EFF30983054968334A6B22F001024A63D0
:1042200083F30988002383F31188704700EF00E0CF
:10423000302080F3118862B60D4B0E4AD96821F404
:10424000E0610904090C0A430B49DA60D3F8FC2049
:1042500042F08072C3F8FC20084AC2F8B01F11680F
:1042600041F0010111602022DA7783F822007047C3
:1042700000ED00E00003FA0555CEACC5001000E0EB
:10428000302310B583F311880E4B5B6813F4006381
:1042900014D0F1EE103AEFF309844FF08073683CCC
:1042A000E361094BDB6B236684F3098800F046FF6A
:1042B00010B1064BA36110BD054BFBE783F31188DA
:1042C000F9E700BF00ED00E000EF00E03F04000868
:1042D0004204000808B5074B074A196801F03D0180
:1042E000996053680BB190689847BDE80840FFF7A4
:1042F000C7BF00BF00000240204F002008B5084B98
:104300001968890901F03D018A019A60054AD3685C
:104310000BB110699847BDE80840FFF7B1BF00BF77
:1043200000000240204F002008B5084B1968090C16
:1043300001F03D010A049A60054A53690BB1906986
:104340009847BDE80840FFF79BBF00BF0000024050
:10435000204F002008B5084B1968890D01F03D0178
:104360008A059A60054AD3690BB1106A9847BDE87F
:104370000840FFF785BF00BF00000240204F00202B
:1043800008B5074B074A596801F03D01D960536AE7
:104390000BB1906A9847BDE80840FFF771BF00BFB6
:1043A00000000240204F002008B5084B59688909D9
:1043B00001F03D018A01DA60054AD36A0BB1106B46
:1043C0009847BDE80840FFF75BBF00BF0000024010
:1043D000204F002008B5084B5968090C01F03D0139
:1043E0000A04DA60054A536B0BB1906B9847BDE83D
:1043F0000840FFF745BF00BF00000240204F0020EB
:1044000008B5084B5968890D01F03D018A05DA604D
:10441000054AD36B0BB1106C9847BDE80840FFF715
:104420002FBF00BF00000240204F002008B5074BFF
:10443000074A196801F03D019960536C0BB1906C0B
:104440009847BDE80840FFF71BBF00BF00040240CB
:10445000204F002008B5084B1968890901F03D017B
:104460008A019A60054AD36C0BB1106D9847BDE87C
:104470000840FFF705BF00BF00040240204F0020A6
:1044800008B5084B1968090C01F03D010A049A604F
:10449000054A536D0BB1906D9847BDE80840FFF792
:1044A000EFBE00BF00040240204F002008B5084BBB
:1044B0001968890D01F03D018A059A60054AD36D9E
:1044C0000BB1106E9847BDE80840FFF7D9BE00BF9A
:1044D00000040240204F002008B5074B074A5968E6
:1044E00001F03D01D960536E0BB1906E9847BDE865
:1044F0000840FFF7C5BE00BF00040240204F002067
:1045000008B5084B5968890901F03D018A01DA6054
:10451000054AD36E0BB1106F9847BDE80840FFF70E
:10452000AFBE00BF00040240204F002008B5084B7A
:104530005968090C01F03D010A04DA60054A536F1D
:104540000BB1906F9847BDE80840FFF799BE00BFD8
:1045500000040240204F002008B5084B5968890D1F
:1045600001F03D018A05DA60054AD36F13B1D2F834
:1045700080009847BDE80840FFF782BE0004024073
:10458000204F002000230C4910B51A460B4C0B603D
:1045900054F82300026001EB430004334260402BD7
:1045A000F6D1074A4FF0FF339360D360C2F8083466
:1045B000C2F80C3410BD00BF204F00204C7800081A
:1045C000000002400F28F8B510D9102810D011288B
:1045D00011D0122808D10F240720DFF8B4E00126FB
:1045E000DEF80050A04208D9002649E00446F4E76E
:1045F0000F240020F1E70724FBE706FA00F73D420D
:1046000040D1214C4FEA001C3D4304EB00160EEB59
:10461000C000CEF80050C0E90123FBB24BB11B48EB
:10462000836B43F001038363036E43F0010303666E
:10463000036E17F47F4F09D01448836B43F00203D5
:104640008363036E43F002030366036E54F80C00A9
:10465000036823F01F030360056815F00105FBD113
:1046600004EB0C033D2493F80CC05F6804FA0CF4CF
:104670003C6021240560446112B1987B00F04AF847
:104680003046F8BD0130ADE74C78000800450258CF
:10469000204F002010B5302484F31188FFF792FFDB
:1046A000002383F3118810BD10B50446807B00F011
:1046B00047F801231049627B03FA02F20B6823EAF0
:1046C0000203DAB20B604AB90C4A916B21F0010186
:1046D0009163116E21F001011166126E13F47F4F88
:1046E00009D1064B9A6B22F002029A631A6E22F0ED
:1046F00002021A661B6E10BD204F002000450258B2
:1047000008B5302383F31188FFF7CEFF002383F32E
:10471000118808BD090100F16043012203F56143DE
:10472000C9B283F8001300F01F039A4043099B00AD
:1047300003F1604303F56143C3F880211A607047B9
:1047400000F01F0301229A40430900F160409B00E2
:1047500000F5614003F1604303F56143C3F8802035
:10476000C3F88021002380F8003370470268436853
:104770001143016003B118477047000013B5406B47
:1047800000F58054D4F8A4381A681178042914D19B
:10479000017C022911D11979012312898B4013421E
:1047A0000BD101A94C3002F083FAD4F8A448024698
:1047B000019B2179206800F005FA02B010BD0000CD
:1047C000143002F005BA00004FF0FF33143002F04D
:1047D000FFB900004C3002F0D7BA00004FF0FF33B1
:1047E0004C3002F0D1BA0000143002F0D3B900000E
:1047F0004FF0FF31143002F0CDB900004C3002F020
:10480000A3BA00004FF0FF324C3002F09DBA000016
:1048100010B500F58054D4F8A4381A68117804292A
:1048200017D1017C022914D15979012352898B4077
:1048300013420ED1143002F067F9024648B1D4F8A1
:10484000A4484FF4407361792068BDE8104000F03F
:10485000A7B910BD406BFFF7DBBF000000290CBFFC
:104860006FF0130000207047704700007FB5124BB7
:1048700001250426044603600023057400F1840228
:1048800043602946C0E902330C4B02901430019377
:104890004FF44073009602F013F9094B04F694426A
:1048A000294604F14C000294CDE900634FF44073B3
:1048B00002F0DAF904B070BD4C79000855480008E0
:1048C0007D470008302383F311880B790A680B3386
:1048D00042F823004B79133342F823008B7913B14C
:1048E0000B3342F8230000F58053C3F8A4180223C9
:1048F0000374002080F311887047000038B5037FEF
:10490000044613B190F85430ABB90125201D0221A3
:10491000FFF72CFF04F114006FF00101257700F080
:10492000CFFC04F14C0084F854506FF00101BDE855
:10493000384000F0C5BC38BD10B501210446043034
:10494000FFF714FF0023237784F8543010BD0000D4
:1049500038B504460025143002F0CAF804F14C00C2
:10496000257702F099F9201D84F854500121FFF7B2
:10497000FDFE2046BDE83840FFF74ABF90F8803082
:1049800003F06003202B06D190F881200023212A18
:1049900003D81F2A06D800207047222AFBD1C0E97D
:1049A0001D3303E0034A426707228267C367012081
:1049B000704700BF3423002037B500F58055D5F887
:1049C000A4381A68117804291AD1017C022917D158
:1049D0001979012312898B40134211D100F14C0443
:1049E000204602F019FA58B101A9204602F060F9F8
:1049F000D5F8A4480246019B2179206800F0E2F82E
:104A000003B030BD2DE9F34104460D4621B301F159
:104A10000B0350F82360FEB1302383F3118800EBC1
:104A2000810706F14C08FB685B691B6833B140469F
:104A300002F04CF90821301DFFF798FE01A940460D
:104A400002F036F9024650B1019B2946204600F09B
:104A5000B9F8002383F3118802B0BDE8F081FB6848
:104A60005A69126832B11B8A013B134002D104F12A
:104A70008002EAE71021301DFFF778FEE9E7000029
:104A800038B509B3133150F82140ECB1302383F32A
:104A9000118804F58053D3F8A4281368527903EBE6
:104AA0008203DB689B695D6845B104216018FFF7EC
:104AB0005DFE294604F1140002F030F82046FFF7AD
:104AC000A7FE002383F3118838BD00007047000063
:104AD00010B50446002101F0CFFF0021204601F06F
:104AE000BFFF63681B6813B1062120469847A3687F
:104AF00023F00113A3600023A367062384F870301A
:104B000010BD000001F0B0BA01234022002110B511
:104B1000044600F8303BFCF7BFFF0023C4E9013333
:104B200010BD000010B53023044683F31188242201
:104B3000416000210C30FCF7AFFF204601F0B6FACF
:104B400002230020237080F3118810BD70B500EBA4
:104B50008103054650690E461446DA6018B11022EA
:104B60000021FCF799FFA06918B110220021FCF781
:104B700093FF31462846BDE8704001F099BB000024
:104B800083682022002103F0011310B504468360DE
:104B90001030FCF781FF2046BDE8104001F014BC46
:104BA000F0B4012500EB810447898D40E4683D4362
:104BB000A469458123600023A2606360F0BC01F01A
:104BC00031BC0000F0B4012500EB810407898D4061
:104BD000E4683D436469058123600023A26063604B
:104BE000F0BC01F0A7BC000070B50223002504460C
:104BF000242203702946C0F888500C30C56640F85E
:104C0000045CFCF749FF204684F8705001F0E2FA9A
:104C100063681B6823B129462046BDE870401847E9
:104C200070BD00000378052B10B504460AD080F84B
:104C30008C300523037043681B680BB1042198472F
:104C40000023A36010BD00000178052906D190F86B
:104C50008C20436802701B6803B11847704700003E
:104C600070B590F8703004463BB1836823F00113AF
:104C700083600023836780F8703004F18002002194
:104C8000204601F0C5FB63689B684BB994F88030FF
:104C900013F0600528D02046BDE87040FFF718BF2C
:104CA000204698470028F1D0B4F88630A26F9A4287
:104CB00088BFA36794F98030A56F002B4FF03003B5
:104CC00080F20281002D00F0F180092284F870202A
:104CD00083F3118800212046D4E91D23FFF772FFDA
:104CE000002383F3118870BD94F8812003F07F03C3
:104CF00043EA022340F20232934200F0C48021D8FA
:104D0000B3F5807F47D00DD8012B3ED0022B00F0A9
:104D10009280002BBFD104F1880262670222A26751
:104D2000E367C1E7B3F5817F00F09A80B3F5407F78
:104D3000B1D194F88230012BADD1B4F8883043F072
:104D4000020331E0B3F5006F4CD017D8B3F5A06F74
:104D500030D0A3F5C063012B9DD86368204694F83A
:104D600082205E6894F88310B4F88430B04700283D
:104D700091D0436863670368A36719E0B3F5106FC8
:104D800035D040F60242934285D15C4B63670223E3
:104D9000A3670023C4E794F88230012B7FF47BAF34
:104DA000B4F8883023F00203A4F88830C4E91D5514
:104DB000E56779E7B4F88030B3F5A06F0ED194F8C9
:104DC0008230204684F88A3001F064FA63681B68F8
:104DD00013B1012120469847032323700023C4E91F
:104DE0001D339DE704F18B0363670123C4E7237838
:104DF000042B10D1302383F311882046FFF7C0FE27
:104E000085F311880321636884F88B5021701B6837
:104E10000BB12046984794F88230002BDED084F8FE
:104E20008B300423237063681B68002BD6D00221CB
:104E300020469847D2E794F8843020461D0603F0B8
:104E40000F010AD501F0D6FA012804D002287FF418
:104E500022AF2B4B9AE72B4B98E701F0BDFAF3E713
:104E600094F88230002B7FF416AF94F8843013F05E
:104E70000F01B3D01A06204602D501F015FEADE7AA
:104E800001F006FEAAE794F88230002B7FF403AF0E
:104E900094F8843013F00F01A0D01B06204602D5F1
:104EA00001F0EAFD9AE701F0DBFD97E7142284F8B0
:104EB000702083F311882B462A4629462046FFF7A7
:104EC0006FFE85F311880EE75DB1152284F870201E
:104ED00083F3118800212046D4E91D23FFF760FEEB
:104EE000FEE60B2284F8702083F311882B462A46B5
:104EF00029462046FFF766FEE3E700BF7C790008FD
:104F0000747900087879000838B590F87030044654
:104F10000B2B09D80B2B37D8DFE803F008363636D1
:104F200036360836360D2737152B2DD12046BDE8ED
:104F30003840FFF7CDBD856FB0F886309D4214D262
:104F4000C3681B8AB5FBF3F203FB12556DB930231E
:104F500083F311882B462A462946FFF733FE85F353
:104F600011880A2384F870300EE0142384F870301E
:104F7000302383F31188002320461A461946FFF791
:104F80000FFE002383F3118838BDC36F03B1984728
:104F9000A36823F00113A3600023A367E2E70000E6
:104FA00010B590F870300446142B1ED00CD8062B88
:104FB00005D001D81BB110BD0A3B012BFBD8204600
:104FC000BDE81040FFF784BD152BF4D10B2380F80A
:104FD0007030302383F3118800231A461946FFF7F7
:104FE000F1FD002383F31188E5E7C3689B695B68E3
:104FF000002BE0D1C36F03B19847A36823F00113DE
:10500000A3600023A36784F87030D4E7002382688C
:10501000037503691B6899689142FBD25A68036063
:10502000426010605860704700238268037503690E
:105030001B6899689142FBD85A680360426010600F
:105040005860704708B50846302383F311880A7DFD
:105050000023052A06D8DFE802F00B050503120E2F
:10506000826913604FF0FF338361FFF7CFFF0023A6
:1050700083F3118808BD8269936801339360D0E996
:10508000003213605A60EDE7FFF7C0BF38B50A4B36
:105090001C68DD682875226853601A600122DC6094
:1050A000A3682275934201D100F0ECFE2946204608
:1050B000BDE83840FBF7AEB9A84F00200C4B30B527
:1050C000DD684B1C87B004460FD02B46094A684662
:1050D00000F08AF92046FFF7D9FF009B13B168461C
:1050E00000F08CF9A86907B030BDFFF7CFFFF9E7F2
:1050F000A84F00204550000870B50F4E044681614E
:10510000F36881689A68914203D8BDE87040FFF760
:105110007DBF1846FFF788FF83680546012B01D144
:1051200000F0B2FE012329462046F4602375BDE855
:105130007040FBF76FB900BFA84F0020044B1A68FE
:10514000DB6890689B68984294BF002001207047FC
:10515000A84F002038B50B4B1C68DD6822685360EF
:105160001A600122DC602275AB68934201D100F025
:105170008BFE2846FFF758FF01462046BDE8384021
:10518000FBF748B9A84F002038B50123084C00258B
:105190002370656001F07CFE01F0A6FE054906481B
:1051A00001F082FF0223237085F3118838BD00BF10
:1051B0001052002084790008A84F002008B572B66C
:1051C000044B186500F032FD00F0F4FD024B0322A1
:1051D0001A70FEE7A84F00201052002000F044B9DA
:1051E000034A516853685B1A9842FBD8704700BF66
:1051F000001000E08B600223086108468B82704734
:105200008368A3F1840243F8142C026943F8442C08
:10521000426943F8402C094A43F8242CC268A3F1A0
:10522000200043F8182C022203F80C2C002203F86B
:105230000B2C034A43F8102C704700BF2D040008C4
:10524000A84F002008B5FFF7DBFFBDE80840FFF7D7
:105250001BBF0000024BDB6898610F20FFF716BFF1
:10526000A84F0020302383F31188FFF7F3BF00001D
:1052700008B50146302383F311880820FFF71EFF8D
:10528000002383F3118808BD064BDB6839B14268FF
:1052900018605A60136043600420FFF70FBF4FF09F
:1052A000FF307047A84F00200368984206D01A6864
:1052B0000260506018469961FFF7E6BE7047000033
:1052C00038B504460D462068844200D138BD0368D5
:1052D00023605C608561FFF7D7FEF4E7036810B5D3
:1052E0009C68A2420CD85C688A600B604C602160AC
:1052F000596099688A1A9A604FF0FF33836010BD35
:10530000121B1B68ECE700000A2938BF0A2170B5A0
:1053100004460D460A26601901F0B4FD01F09CFD1B
:10532000041BA54203D8751C04462E46F3E70A2E3B
:1053300004D90120BDE8704001F0F6BE70BD000048
:10534000F8B5144B0D460A2A4FF00A07D96103F14C
:105350001001826038BF0A22416019691446016059
:1053600048601861A81801F07DFD01F075FD431B30
:105370000646A34206D37C1C28192746354601F071
:1053800081FDF2E70A2F04D90120BDE8F84001F0C1
:10539000CBBEF8BDA84F0020F8B506460D4601F07B
:1053A0005BFD0F4A134653F8107F9F4206D12A46F1
:1053B00001463046BDE8F840FFF7C2BFD169BB687F
:1053C000441A2C1928BF2C46A34202D92946FFF7BC
:1053D0009BFF224631460348BDE8F840FFF77EBFF9
:1053E000A84F0020B84F0020C0E90323002310B4C9
:1053F0005DF8044B4361FFF7CFBF000010B5194CB7
:10540000236998420DD08168D0E9003213605A6058
:105410009A680A449A60002303604FF0FF33A36147
:1054200010BD0268234643F8102F5360002202602B
:1054300022699A4203D1BDE8104001F01DBD936876
:1054400081680B44936001F007FD2269E16992686D
:10545000441AA242E4D91144BDE81040091AFFF7EA
:1054600053BF00BFA84F00202DE9F047DFF8BC80F4
:1054700008F110072C4ED8F8105001F0EDFCD8F8C8
:105480001C40AA68031B9A423ED814444FF00009FE
:10549000D5E90032C8F81C4013605A60C5F8009086
:1054A000D8F81030B34201D101F0E6FC89F311883D
:1054B000D5E9033128469847302383F311886B6977
:1054C000002BD8D001F0C8FC6A69A0EB0409824621
:1054D0004A450DD2022001F027FE0022D8F81030F4
:1054E000B34208D151462846BDE8F047FFF728BF30
:1054F000121A2244F2E712EB09092946384638BF4E
:105500004A46FFF7EBFEB5E7D8F81030B34208D0B3
:105510001444C8F81C00211AA960BDE8F047FFF741
:10552000F3BEBDE8F08700BFB84F0020A84F0020B1
:1055300038B501F091FC054AD2E90845031B18195A
:1055400045F10001C2E9080138BD00BFA84F0020A5
:1055500000207047FEE70000704700004FF0FF306A
:105560007047000002290CD0032904D00129074804
:1055700018BF00207047032A05D8054800EBC20079
:105580007047044870470020704700BF5C7A0008ED
:1055900044230020107A000870B59AB005460846EA
:1055A000144601A900F0C2F801A8FCF76DFA431CEB
:1055B0000022C6B25B001046C5E900342370032305
:1055C000023404F8013C01ABD1B202348E4201D85E
:1055D0001AB070BD13F8011B013204F8010C04F875
:1055E000021CF1E708B5302383F311880348FFF765
:1055F000E3F9002383F3118808BD00BF185200208F
:1056000090F8803003F01F02012A07D190F8812022
:105610000B2A03D10023C0E91D3315E003F060031A
:10562000202B08D1B0F884302BB990F88120212AA2
:1056300003D81F2A04D8FFF7A1B9222AEBD0FAE732
:10564000034A426707228267C3670120704700BF91
:105650003B23002007B5052917D8DFE801F019160C
:1056600003191920302383F31188104A0121019076
:10567000FFF76CFA019802210D4AFFF767FA0D480F
:10568000FFF766F9002383F3118803B05DF804FB8C
:10569000302383F311880748FFF730F9F2E730230E
:1056A00083F311880348FFF747F9EBE7B079000867
:1056B000D47900081852002038B50C4D0C4C2A46FD
:1056C0000C4904F10800FFF767FF05F1CA0204F175
:1056D00010000949FFF760FF05F5CA7204F11800D0
:1056E0000649BDE83840FFF757BF00BFF06A002009
:1056F000442300209079000899790008A4790008D3
:1057000070B5044608460D46FCF7BEF9C6B2204601
:10571000013403780BB9184670BD32462946FCF7B0
:105720009FF90028F3D10120F6E700002DE9F047AA
:1057300005460C46FCF7A8F92B49C6B22846FFF7E8
:10574000DFFF08B10636F6B228492846FFF7D8FF32
:1057500008B11036F6B2632E0BD8DFF88C80DFF874
:105760008C90234FDFF894A02E7846B92670BDE8C0
:10577000F08729462046BDE8F04701F0CBBF252E33
:105780002ED1072241462846FCF76AF970B9194B19
:10579000224603F10C0153F8040B8B4242F8040B30
:1057A000F9D11B7807350D341370DDE7082249461F
:1057B0002846FCF755F998B9A21C0F4B197802320C
:1057C0000909C95D02F8041C13F8011B01F00F015F
:1057D0005345C95D02F8031CF0D118340835C3E7FE
:1057E000013504F8016BBFE77C7A0008A479000852
:1057F000847A00085277000800E8F11F0CE8F11FD6
:10580000BFF34F8F044B1A695107FCD1D3F8102115
:105810005207F8D1704700BF0020005208B50D4B69
:105820001B78ABB9FFF7ECFF0B4BDA68D10704D557
:105830000A4A5A6002F188325A60D3F80C21D20722
:1058400006D5064AC3F8042102F18832C3F80421C0
:1058500008BD00BF4E6D00200020005223016745A7
:1058600008B5114B1B78F3B9104B1A69510703D5D2
:10587000DA6842F04002DA60D3F81021520705D509
:10588000D3F80C2142F04002C3F80C21FFF7B8FF17
:10589000064BDA6842F00102DA60D3F80C2142F0DC
:1058A0000102C3F80C2108BD4E6D002000200052FB
:1058B0000F289ABF00F58060400400207047000068
:1058C0004FF4003070470000102070470F2808B5D3
:1058D0000BD8FFF7EDFF00F500330268013204D169
:1058E00004308342F9D1012008BD0020FCE700000C
:1058F0000F2838B505463FD8FFF782FF1F4CFFF74A
:105900008DFF4FF0FF3307286361C4F814311DD8B1
:105910002361FFF775FF030243F02403E360E368AC
:1059200043F08003E36023695A07FCD42846FFF75D
:1059300067FFFFF7BDFF4FF4003100F017FA28466C
:10594000FFF78EFFBDE83840FFF7C0BFC4F8103145
:10595000FFF756FFA0F108031B0243F02403C4F82D
:105960000C31D4F80C3143F08003C4F80C31D4F876
:1059700010315B07FBD4D9E7002038BD002000526E
:105980002DE9F84F04460D46104644EA0203DE06B0
:1059900002D00020BDE8F88F20F01F00DFF8D4B05F
:1059A000DFF8D4A0FFF73AFF05EB0008454503D127
:1059B0000120FFF755FFEDE720222946204601F0A0
:1059C00077FE10B920342035F0E7234604F1200299
:1059D0001F68791CDDD104339342F9D104F1784377
:1059E0002048214EB3F5801F204B38BF184603F1E5
:1059F000F80332BFD946D1461E46FFF701FF0760C4
:105A0000A4EB050C336805F11C0143F0020333607D
:105A10002B1FD9F8007017F00507FAD153F8042F9F
:105A20008B424CF80320F4D1BFF34F8FFFF7E8FE11
:105A30004FF0FF330360336823F002033360BFF39A
:105A40004F8F0B4BC3F85C42BFF34F8FBFF36F8F89
:105A500020222946204601F02BFE0028B2D03846ED
:105A6000A7E700BF142100520C200052142000525E
:105A700000ED00E0102000521021005210B5084C3B
:105A8000237828B11BB9FFF7C9FE0123237010BD8D
:105A9000002BFCD02070BDE81040FFF7E1BE00BF36
:105AA0004E6D00202DE9F04F0D4685B0814658B16E
:105AB00011F00D0614BF2022082211F008030193F3
:105AC00004D0431E03426AD0002435E0002E37D0B4
:105AD00009F11F0121F01F094FF00108324F05F0B5
